:100000000C9400010C9426010C9426010C942601FA
:100010000C9426010C9426010C9426010C942601C4
:100020000C9426010C9426010C9426010C942601B4
:100030000C9426010C94C6050C9457070C948F075A
:100040000C94C7070C94FF070C9437080C946F08A6
:100050000C94A7080C94DF080C9417090C944F0912
:100060000C9426010C9426010C9426010C94260174
:100070000C9426010C9426010C9426010C94260164
:100080000C9426010C9426010C9426010C94260154
:100090000C9426010C9426010C9426010C94260144
:1000A0000C9426010C9426010C9426010C94260134
:1000B0000C9426010C9426010C94F9050C94B70BB2
:1000C0000C94EF0B0C94270C0C945F0C0C94970C75
:1000D0000C94CF0C0C9426010C9426010C94260150
:1000E0000C9426010C9426010C9426010C942601F4
:1000F0000C9426010C9426010C9426010C942601E4
:100100000C9426010C9426010C9426010C942601D3
:100110000C9426010C9426010C9426010C942601C3
:100120000C9426010C9426010C9426010C942601B3
:100130000C9426010C9487090C94BF090C94F709C0
:100140000C942F0A0C94670A0C949F0A0C94D70AFB
:100150000C940F0B0C94470B0C947F0B0C94260102
:100160000C9426010C9426010C9426010C94260173
:100170000C9426010C9426010C9426010C94260163
:100180000C9426010C9426010C9426010C94260153
:100190000C9426010C9426010C9426010C94260143
:1001A0000C9426010C9426010C9426010C94260133
:1001B0000C9426010C9426010C9426010C94260123
:1001C0000C9426010C9426010C9426010C94260113
:1001D0000C9426010C9426010C9426010C94260103
:1001E0000C9426010C9426010C9426010C942601F3
:1001F0000C9426010C9426010C9426010C94C00248
:1002000011241FBECFEFCDBFDFE3DEBF00E00CBF88
:1002100018BE19BE1ABE1BBE10E2A0E0B0E2EAE7AB
:10022000F2E200E00BBF02C007900D92A033B107CD
:10023000D9F71BBE20E2A0E3B0E201C01D92AE37A9
:10024000B207E1F70E944A030C943B110C940000A2
:100250000F93FC0188E190E280839183628346835F
:100260002783008788E081870F910895EF92FF929E
:100270000F931F93CF93DF934423E1F08C01EB01A5
:100280004150E42EF12C8FEFE81AF80AE60EF71E23
:100290006991D801ED91FC910190F081E02DC801A8
:1002A000199587EA91E60197F1F700C00000CE1595
:1002B000DF0571F7DF91CF911F910F91FF90EF90C4
:1002C0000895CF93DF93CDB7DEB72C97CDBFDEBFB8
:1002D000FC012185622B6C871A821D821E829E0181
:1002E000245F3F4F2F8338878281898381E090E0AC
:1002F00089879A871B8640E0BE016F5F7F4F80E849
:1003000094E00E9441062C96CDBFDEBFDF91CF91D5
:100310000895FC01118660E00E946101089528E0C3
:10032000FC01218760E00E94610108950F931F93F3
:10033000CF938C01C62F64600E94610100006C2F76
:100340006B7FC8010E94610180E18A95F1F700C0CE
:10035000CF911F910F9108951F93CF93DF93EC01DD
:10036000162F0E946101612FCE010E949601DF913C
:10037000CF911F9108950F931F93CF93DF938C011B
:10038000C62FD42F607F642B0E94AC0180E1C89FF0
:10039000B00111246D2BC8010E94AC01DF91CF91F7
:1003A0001F910F91089540E061E00E94BB0183EF2F
:1003B00091E00197F1F700C00000089540E062E08D
:1003C0000E94BB0183EF91E00197F1F700C00000AC
:1003D0000895CF93DF93CDB7DEB72897CDBFDEBFAB
:1003E0009C0188E0E0E0F0E2DE01119601900D92C0
:1003F0008A95E1F7F9018781841710F44FEF480FD0
:10040000E42FF0E0EE0FFF1FEC0FFD1F9181690F4D
:10041000606840E0C9010E94BB012896CDBFDEBFE5
:10042000DF91CF910895AF92BF92CF92DF92EF927A
:10043000FF920F931F93CF93DF93CDB7DEB76097F3
:10044000CDBFDEBF6C0119E1E12CF12C0E94010748
:10045000E80EF91E1150D1F79701AFEAB7E40E94F8
:10046000F010E81AF90AF694E7948E0D9F1D4AE001
:10047000BE016F5F7F4F929582958F7089279F7025
:1004800089270E94061140E062E0C6010E94E9014E
:100490008CE0E8E0F0E2DE01159601900D928A957D
:1004A000E1F77E0185E0E80EF11C5E01A0E1AA0EF5
:1004B000B11CF70161917F01D601ED91FC91019092
:1004C000F081E02DC6011995EA14FB0491F741E093
:1004D00065E0C6010E94E9017E0101E005C01F5FE1
:1004E0000F5FBFEFEB1AFB0A123051F4D601ED910A
:1004F000FC910190F081E02D6EE2C6011995EFCFDD
:10050000133058F0D601ED91FC910190F081E02D6F
:10051000D7016C91C60119950BC0D601ED91FC91E4
:100520000190F081E02DD70111966C91C6011995CB
:100530000430A8F241E06AE0C6010E94E901D60158
:10054000ED91FC910190F081E02D66E4C6011995D2
:100550006096CDBFDEBFDF91CF911F910F91FF90CD
:10056000EF90DF90CF90BF90AF900895FC01648131
:10057000262F246024836C6040E00E94BB01089514
:1005800041E00E94BB0181E00895CF93DF93EC012D
:10059000E0E3F0E281E0808780EA96E8A1E0B0E065
:1005A00080839183A283B38385E090E0A0E0B0E0F4
:1005B00084839583A683B783E0E8F4E08181886033
:1005C000818360E370E280E894E00E942C061B8245
:1005D0008F81823010F098E09B839885992329F0D1
:1005E000813019F48B8184608B8383ED90E30197D4
:1005F000F1F700C000006985CE010E9461019FE310
:100600002DE083E0915020408040E1F700C00000E1
:1006100060E3CE010E94AC0184E694E00197F1F71B
:1006200000C0000060E3CE010E94AC0184E694E0CB
:100630000197F1F700C0000060E3CE010E94AC0119
:1006400092E39A95F1F760E2CE010E94AC016B81D2
:10065000606240E0CE010E94BB0184E08C83CE0149
:100660000E94B602CE010E94D30182E08D8340E059
:1006700066E0CE010E94BB01CE010E94DE01DF9147
:10068000CF910895662319F00E948F0108950E946A
:1006900089010895CF93DF93CDB7DEB76F97CDBFB4
:1006A000DEBF8FE0EAE1F0E2DE01119601900D92EB
:1006B0008A95E1F786E0E9E2F0E2DE0150960190EA
:1006C0000D928A95E1F700E022E040E16FE3CE0170
:1006D00046960E942801CE0146960E94C502CE0190
:1006E00046960E94D30161E0CE0146960E944203E5
:1006F00040E060E0CE0146960E94E9014EE0BE0176
:100700006F5F7F4FCE0146960E94360141E065E063
:10071000CE0146960E94E90145E0BE01605F7F4F31
:10072000CE0146960E9436010E947D040E94D604A6
:10073000E0E0F6E080E88283858380E4828385833D
:10074000E0E2F6E088E08283858384E080932806F7
:1007500081E08093210680E090E0412C512C320111
:100760000F2EA12CF6E0BF2EF02D6894EE24E6F8B3
:1007700000E216E00F2EF6E2CF2EF6E0DF2EF02D8F
:10078000FF24F3940F2EF5E28F2EF6E09F2EF02D2E
:10079000009709F540E060E0CE0146960E94E9012D
:1007A0004EE0BE016F5F7F4FCE0146960E9436013C
:1007B0004F2D65E0CE0146960E94E90145E0BE015D
:1007C000605F7F4FCE0146960E9436010E94AD04C5
:1007D0000E94060503C08130910581F4F8018085EF
:1007E00083FD4CC0F401F082FFEF21EE84E0F15074
:1007F00020408040E1F700C0000003C08230910536
:1008000061F4F801808582FF03C0F601F08208C020
:10081000CE0146960E941302F4CF8330910539F43D
:10082000CE0146960E94D3010E94880403C0843002
:100830009105B9F4F5018085882364F40E94AD0424
:10084000FFEF23EC89E0F15020408040E1F700C049
:1008500000000AC0CE0146960E94130284E090E098
:1008600033C08530910561F4CE0146960E94D301D4
:100870000E94E104412C512C320113C081E090E030
:100880008630910551F49BE4491691E059066104C4
:10089000710438F00E94060510C08730910569F098
:1008A00013C0CE0146960E941302EFEF4E1A5E0A65
:1008B0006E0A7E0A86E090E06BCFCE0146960E94DB
:1008C000D3010E94880404C08830910509F060CFEC
:1008D000F501808586FF0AC0E6820E94AD04CE0144
:1008E00046960E94D30180E090E052CFCE0146961A
:1008F0000E94130288E090E04BCFE1E4F6E084E050
:10090000808380E880936106808380E480830895FB
:10091000CF93DF93CDB7DEB72797CDBFDEBF24EFF0
:1009200031E043E060E0CE0101960E943F0EE5E435
:10093000F6E084E0808380E8809365068093460635
:1009400080E4808362E3CE0101960E94E30E279645
:10095000CDBFDEBFDF91CF910895CF93DF93CDB7A9
:10096000DEB72797CDBFDEBF24EF31E043E060E084
:10097000CE0101960E943F0EE5E4F6E084E080831C
:1009800080E8809366068093460680E48083E98150
:10099000FA818081807F808389819A810E946C0D99
:1009A0002796CDBFDEBFDF91CF91089581E0809380
:1009B0006106E1E8F6E094E0908392E09083808322
:1009C0000895CF93DF93CDB7DEB72797CDBFDEBFB6
:1009D00024EF31E041E062E0CE0101960E943F0E3B
:1009E00081E080936506E5E8F6E094E0908392E08C
:1009F0009093860680836FE5CE0101960E94E30EF8
:100A00002796CDBFDEBFDF91CF910895CF93DF93BF
:100A1000CDB7DEB72797CDBFDEBF24EF31E041E091
:100A200062E0CE0101960E943F0E81E08093650650
:100A3000E6E8F6E094E0908392E090838093850668
:100A4000E981FA818081807F808389819A810E94F7
:100A50006C0D2796CDBFDEBFDF91CF910895CF9368
:100A6000DF93E0913920F0913A20848183FF08C020
:100A70008860848383E0838386EF8093432083C0F0
:100A8000982F947131F083E083838FEF809343201C
:100A90007AC086FF43C0C9E3D0E2AA81BB818C81C2
:100AA0009D8114962D913C911597821793076CF4B4
:100AB0009C012F5F3F4F20933D2030933E20A80F95
:100AC000B91F11968C9187835EC080913F209091D1
:100AD000402018962D913C91199782179307C8F4DE
:100AE00020914120222321F08681816086834BC0A2
:100AF00016962D913C911797AC014F5F5F4F409335
:100B00003F2050934020D901A80FB91F8C918783B3
:100B10003AC083E083831092432035C0882384F554
:100B2000A9E3B0E21296CD91DC91139716968D91C0
:100B30009C9117972885398582179307D8F46E8181
:100B40007F819C012F5F3F4F20933F2030934020B7
:100B50004781DB01A80FB91F4C9388859985281719
:100B6000390718F482E083830EC087E083831092F4
:100B7000432009C083E0838389EF8093432003C02F
:100B80008BEF80934320DF91CF9108951F920F92B6
:100B90000FB60F92112408B60F9218BE09B60F9225
:100BA00019BE0BB60F921BBE2F933F934F935F93CB
:100BB0006F937F938F939F93AF93BF93EF93FF9325
:100BC0000E942F05FF91EF91BF91AF919F918F915F
:100BD0007F916F915F914F913F912F910F900BBE3D
:100BE0000F9009BE0F9008BE0F900FBE0F901F9080
:100BF00018951F920F920FB60F92112408B60F92FC
:100C000018BE09B60F9219BE0BB60F921BBE2F93DA
:100C10003F934F935F936F937F938F939F93AF9384
:100C2000BF93EF93FF930E942F05FF91EF91BF9128
:100C3000AF919F918F917F916F915F914F913F9174
:100C40002F910F900BBE0F9009BE0F9008BE0F9012
:100C50000FBE0F901F901895FC01DB0114968C912C
:100C6000858388EB818381E08483E9E3F0E2118668
:100C70001286E0EAF0E0828182608283789480E0EC
:100C80000895CF93DF931F92CDB7DEB79C01FB0190
:100C9000892B09F45AC0309709F459C09285809184
:100CA0004220882319F09923F1F353C08FB7898329
:100CB000F8948981A9E3B0E291E019969C93199781
:100CC00090E81A969C931A978FBF2D933C93119797
:100CD00012966D937C93139714961D921C92159700
:100CE00016961D921C92179718964C938081880F28
:100CF00064817581672B11F4411103C0F90186836A
:100D000003C08160F9018683E9E3F0E292859038BF
:100D1000E9F3F90184818370813009F123E630E041
:100D2000A9E3B0E2ED91FC91119784818370813049
:100D300021F021503109B1F70EC080914320232BBF
:100D400009F48DEF109242200DC088EF0BC088EFA0
:100D500009C086EF07C0809143208DEFF3CF8091CB
:100D60004320F0CF0F90DF91CF910895AAECB1E02E
:100D700022E02C93FC0184911C9208950F931F9301
:100D8000CF93DF93C82FD62F8091000280FD16C02D
:100D900000E012E081E0F801808311821282138268
:100DA00085E084838CE090E00E94B606F801848799
:100DB0008DE090E00E94B606F8018587E0E0F2E061
:100DC000D0AFCC0FCC0FCC0FC1AF12AE80AD8068CE
:100DD00080AF86818823E9F3E0E0F2E086818683B4
:100DE00080AD806880AF86818823E9F3E0E0F2E09F
:100DF0008681868386899789DF91CF911F910F9194
:100E0000089561E083E00E94BE0628EE33E0DC0135
:100E10000E94FF10DC01CB01072E7CE0B695A79560
:100E2000979587957A95D1F7702DBC016F507240D8
:100E300080E090E00E94D30F26E636E646EE5FE3C0
:100E40000E94611020E030E040EA53E40E94380F35
:100E50000E94A40FCB010895CF93DF931F92CDB7CB
:100E6000DEB79FB79983F8949981E82FF0E0E059B5
:100E7000FF4F60958081682360839FBF0F90DF9153
:100E8000CF910895CF93DF931F92CDB7DEB79FB771
:100E90009983F8949981E82FF0E0E059FF4F808121
:100EA000682B60839FBF0F90DF91CF9108951F92B1
:100EB0000F920FB60F92112408B60F9218BE09B602
:100EC0000F9219BE0BB60F921BBE2F933F934F93F9
:100ED0005F936F937F938F939F93AF93BF93EF93A2
:100EE000FF93E0917620F0917720309709F01995E3
:100EF000FF91EF91BF91AF919F918F917F916F91F2
:100F00005F914F913F912F910F900BBE0F9009BEB3
:100F10000F9008BE0F900FBE0F901F9018951F9254
:100F20000F920FB60F92112408B60F9218BE09B691
:100F30000F9219BE0BB60F921BBE2F933F934F9388
:100F40005F936F937F938F939F93AF93BF93EF9331
:100F5000FF93E0917420F0917520309709F0199576
:100F6000FF91EF91BF91AF919F918F917F916F9181
:100F70005F914F913F912F910F900BBE0F9009BE43
:100F80000F9008BE0F900FBE0F901F9018951F92E4
:100F90000F920FB60F92112408B60F9218BE09B621
:100FA0000F9219BE0BB60F921BBE2F933F934F9318
:100FB0005F936F937F938F939F93AF93BF93EF93C1
:100FC000FF93E0917220F0917320309709F019950A
:100FD000FF91EF91BF91AF919F918F917F916F9111
:100FE0005F914F913F912F910F900BBE0F9009BED3
:100FF0000F9008BE0F900FBE0F901F9018951F9274
:101000000F920FB60F92112408B60F9218BE09B6B0
:101010000F9219BE0BB60F921BBE2F933F934F93A7
:101020005F936F937F938F939F93AF93BF93EF9350
:10103000FF93E0917020F0917120309709F019959D
:10104000FF91EF91BF91AF919F918F917F916F91A0
:101050005F914F913F912F910F900BBE0F9009BE62
:101060000F9008BE0F900FBE0F901F9018951F9203
:101070000F920FB60F92112408B60F9218BE09B640
:101080000F9219BE0BB60F921BBE2F933F934F9337
:101090005F936F937F938F939F93AF93BF93EF93E0
:1010A000FF93E0916E20F0916F20309709F0199531
:1010B000FF91EF91BF91AF919F918F917F916F9130
:1010C0005F914F913F912F910F900BBE0F9009BEF2
:1010D0000F9008BE0F900FBE0F901F9018951F9293
:1010E0000F920FB60F92112408B60F9218BE09B6D0
:1010F0000F9219BE0BB60F921BBE2F933F934F93C7
:101100005F936F937F938F939F93AF93BF93EF936F
:10111000FF93E0916C20F0916D20309709F01995C4
:10112000FF91EF91BF91AF919F918F917F916F91BF
:101130005F914F913F912F910F900BBE0F9009BE81
:101140000F9008BE0F900FBE0F901F9018951F9222
:101150000F920FB60F92112408B60F9218BE09B65F
:101160000F9219BE0BB60F921BBE2F933F934F9356
:101170005F936F937F938F939F93AF93BF93EF93FF
:10118000FF93E0916A20F0916B20309709F0199558
:10119000FF91EF91BF91AF919F918F917F916F914F
:1011A0005F914F913F912F910F900BBE0F9009BE11
:1011B0000F9008BE0F900FBE0F901F9018951F92B2
:1011C0000F920FB60F92112408B60F9218BE09B6EF
:1011D0000F9219BE0BB60F921BBE2F933F934F93E6
:1011E0005F936F937F938F939F93AF93BF93EF938F
:1011F000FF93E0916820F0916920309709F01995EC
:10120000FF91EF91BF91AF919F918F917F916F91DE
:101210005F914F913F912F910F900BBE0F9009BEA0
:101220000F9008BE0F900FBE0F901F9018951F9241
:101230000F920FB60F92112408B60F9218BE09B67E
:101240000F9219BE0BB60F921BBE2F933F934F9375
:101250005F936F937F938F939F93AF93BF93EF931E
:10126000FF93E0916620F0916720309709F019957F
:10127000FF91EF91BF91AF919F918F917F916F916E
:101280005F914F913F912F910F900BBE0F9009BE30
:101290000F9008BE0F900FBE0F901F9018951F92D1
:1012A0000F920FB60F92112408B60F9218BE09B60E
:1012B0000F9219BE0BB60F921BBE2F933F934F9305
:1012C0005F936F937F938F939F93AF93BF93EF93AE
:1012D000FF93E0916420F0916520309709F0199513
:1012E000FF91EF91BF91AF919F918F917F916F91FE
:1012F0005F914F913F912F910F900BBE0F9009BEC0
:101300000F9008BE0F900FBE0F901F9018951F9260
:101310000F920FB60F92112408B60F9218BE09B69D
:101320000F9219BE0BB60F921BBE2F933F934F9394
:101330005F936F937F938F939F93AF93BF93EF933D
:10134000FF93E0916220F0916320309709F01995A6
:10135000FF91EF91BF91AF919F918F917F916F918D
:101360005F914F913F912F910F900BBE0F9009BE4F
:101370000F9008BE0F900FBE0F901F9018951F92F0
:101380000F920FB60F92112408B60F9218BE09B62D
:101390000F9219BE0BB60F921BBE2F933F934F9324
:1013A0005F936F937F938F939F93AF93BF93EF93CD
:1013B000FF93E0916020F0916120309709F019953A
:1013C000FF91EF91BF91AF919F918F917F916F911D
:1013D0005F914F913F912F910F900BBE0F9009BEDF
:1013E0000F9008BE0F900FBE0F901F9018951F9280
:1013F0000F920FB60F92112408B60F9218BE09B6BD
:101400000F9219BE0BB60F921BBE2F933F934F93B3
:101410005F936F937F938F939F93AF93BF93EF935C
:10142000FF93E0915E20F0915F20309709F01995CD
:10143000FF91EF91BF91AF919F918F917F916F91AC
:101440005F914F913F912F910F900BBE0F9009BE6E
:101450000F9008BE0F900FBE0F901F9018951F920F
:101460000F920FB60F92112408B60F9218BE09B64C
:101470000F9219BE0BB60F921BBE2F933F934F9343
:101480005F936F937F938F939F93AF93BF93EF93EC
:10149000FF93E0915C20F0915D20309709F0199561
:1014A000FF91EF91BF91AF919F918F917F916F913C
:1014B0005F914F913F912F910F900BBE0F9009BEFE
:1014C0000F9008BE0F900FBE0F901F9018951F929F
:1014D0000F920FB60F92112408B60F9218BE09B6DC
:1014E0000F9219BE0BB60F921BBE2F933F934F93D3
:1014F0005F936F937F938F939F93AF93BF93EF937C
:10150000FF93E0915A20F0915B20309709F01995F4
:10151000FF91EF91BF91AF919F918F917F916F91CB
:101520005F914F913F912F910F900BBE0F9009BE8D
:101530000F9008BE0F900FBE0F901F9018951F922E
:101540000F920FB60F92112408B60F9218BE09B66B
:101550000F9219BE0BB60F921BBE2F933F934F9362
:101560005F936F937F938F939F93AF93BF93EF930B
:10157000FF93E0915820F0915920309709F0199588
:10158000FF91EF91BF91AF919F918F917F916F915B
:101590005F914F913F912F910F900BBE0F9009BE1D
:1015A0000F9008BE0F900FBE0F901F9018951F92BE
:1015B0000F920FB60F92112408B60F9218BE09B6FB
:1015C0000F9219BE0BB60F921BBE2F933F934F93F2
:1015D0005F936F937F938F939F93AF93BF93EF939B
:1015E000FF93E0915620F0915720309709F019951C
:1015F000FF91EF91BF91AF919F918F917F916F91EB
:101600005F914F913F912F910F900BBE0F9009BEAC
:101610000F9008BE0F900FBE0F901F9018951F924D
:101620000F920FB60F92112408B60F9218BE09B68A
:101630000F9219BE0BB60F921BBE2F933F934F9381
:101640005F936F937F938F939F93AF93BF93EF932A
:10165000FF93E0915420F0915520309709F01995AF
:10166000FF91EF91BF91AF919F918F917F916F917A
:101670005F914F913F912F910F900BBE0F9009BE3C
:101680000F9008BE0F900FBE0F901F9018951F92DD
:101690000F920FB60F92112408B60F9218BE09B61A
:1016A0000F9219BE0BB60F921BBE2F933F934F9311
:1016B0005F936F937F938F939F93AF93BF93EF93BA
:1016C000FF93E0915220F0915320309709F0199543
:1016D000FF91EF91BF91AF919F918F917F916F910A
:1016E0005F914F913F912F910F900BBE0F9009BECC
:1016F0000F9008BE0F900FBE0F901F9018951F926D
:101700000F920FB60F92112408B60F9218BE09B6A9
:101710000F9219BE0BB60F921BBE2F933F934F93A0
:101720005F936F937F938F939F93AF93BF93EF9349
:10173000FF93E0915020F0915120309709F01995D6
:10174000FF91EF91BF91AF919F918F917F916F9199
:101750005F914F913F912F910F900BBE0F9009BE5B
:101760000F9008BE0F900FBE0F901F9018951F92FC
:101770000F920FB60F92112408B60F9218BE09B639
:101780000F9219BE0BB60F921BBE2F933F934F9330
:101790005F936F937F938F939F93AF93BF93EF93D9
:1017A000FF93E0914E20F0914F20309709F019956A
:1017B000FF91EF91BF91AF919F918F917F916F9129
:1017C0005F914F913F912F910F900BBE0F9009BEEB
:1017D0000F9008BE0F900FBE0F901F9018951F928C
:1017E0000F920FB60F92112408B60F9218BE09B6C9
:1017F0000F9219BE0BB60F921BBE2F933F934F93C0
:101800005F936F937F938F939F93AF93BF93EF9368
:10181000FF93E0914C20F0914D20309709F01995FD
:10182000FF91EF91BF91AF919F918F917F916F91B8
:101830005F914F913F912F910F900BBE0F9009BE7A
:101840000F9008BE0F900FBE0F901F9018951F921B
:101850000F920FB60F92112408B60F9218BE09B658
:101860000F9219BE0BB60F921BBE2F933F934F934F
:101870005F936F937F938F939F93AF93BF93EF93F8
:10188000FF93E0914A20F0914B20309709F0199591
:10189000FF91EF91BF91AF919F918F917F916F9148
:1018A0005F914F913F912F910F900BBE0F9009BE0A
:1018B0000F9008BE0F900FBE0F901F9018951F92AB
:1018C0000F920FB60F92112408B60F9218BE09B6E8
:1018D0000F9219BE0BB60F921BBE2F933F934F93DF
:1018E0005F936F937F938F939F93AF93BF93EF9388
:1018F000FF93E0914820F0914920309709F0199525
:10190000FF91EF91BF91AF919F918F917F916F91D7
:101910005F914F913F912F910F900BBE0F9009BE99
:101920000F9008BE0F900FBE0F901F9018951F923A
:101930000F920FB60F92112408B60F9218BE09B677
:101940000F9219BE0BB60F921BBE2F933F934F936E
:101950005F936F937F938F939F93AF93BF93EF9317
:10196000FF93E0914620F0914720309709F01995B8
:10197000FF91EF91BF91AF919F918F917F916F9167
:101980005F914F913F912F910F900BBE0F9009BE29
:101990000F9008BE0F900FBE0F901F9018951F92CA
:1019A0000F920FB60F92112408B60F9218BE09B607
:1019B0000F9219BE0BB60F921BBE2F933F934F93FE
:1019C0005F936F937F938F939F93AF93BF93EF93A7
:1019D000FF93E0914420F0914520309709F019954C
:1019E000FF91EF91BF91AF919F918F917F916F91F7
:1019F0005F914F913F912F910F900BBE0F9009BEB9
:101A00000F9008BE0F900FBE0F901F9018951F9358
:101A1000CF93DF931F921F92CDB7DEB72FB72A83E4
:101A2000F8941A81282F392F211588E0380749F4B6
:101A300061E083E00E942C0764E083E00E942C07B1
:101A400035C0203488E0380749F462E083E00E9422
:101A50002C0764E083E00E942C0728C0211589E050
:101A6000380749F461E084E00E942C0764E084E0D8
:101A70000E942C071BC0203489E0380749F462E03B
:101A800084E00E942C0764E084E00E942C070EC0D2
:101A900021153A4049F461E085E00E942C0764E09A
:101AA00085E00E942C0702C01FBF10C080917920E2
:101AB0008F3F09F4FFCF8FB78983F8949981E8E7C6
:101AC000F0E281818F5F81839FBF1FBF0F900F90D6
:101AD000DF91CF911F9108951F93CF93DF931F92B2
:101AE0001F92CDB7DEB72FB72983F89419812091C3
:101AF0007920211101C0FFCF292F382F8FB78A837A
:101B0000F8949A81E8E7F0E28181815081839FBF58
:101B1000832F922F811528E0920749F461E083E03A
:101B20000E94420764E083E00E94420735C080348F
:101B300028E0920749F462E083E00E94420764E0F3
:101B400083E00E94420728C0811529E0920749F4EA
:101B500061E084E00E94420764E084E00E94420762
:101B60001BC0803429E0920749F462E084E00E94BF
:101B7000420764E084E00E9442070EC081159A404B
:101B800049F461E085E00E94420764E085E00E943C
:101B9000420702C01FBF01C01FBF0F900F90DF910F
:101BA000CF911F910895CF92DF92EF92FF92CF9342
:101BB000DF93EC016B01E12CF12C60E874E88EE11D
:101BC00090E0A70196010E94CE10CA01B9012FEF43
:101BD0003FEF40E050E00E94CE102115310529F47E
:101BE00081E08C8321E030E02DC02230310528F4E3
:101BF00082E08C8322E030E025C02430310528F4D7
:101C000083E08C8324E030E01DC02830310528F4C7
:101C100084E08C8328E030E015C02034310528F4BE
:101C200085E08C8320E430E00DC02F3F310509F0C2
:101C300028F486E08C8320E031E004C087E08C83C8
:101C400020E034E040E050E060E874E88EE190E0AD
:101C50000E94CE10CA01B901A70196010E94CE10C0
:101C60002D833E832436310518F41C821D821E828A
:101C7000DF91CF91FF90EF90DF90CF9008950F9379
:101C80001F93CF93DF93EC018901623091F128F427
:101C9000662349F06130D1F064C06330E9F164300B
:101CA00009F44DC05EC080E098E088839983E0E449
:101CB000F6E0308181E090E02FEF240F02C0880F22
:101CC000991F2A95E2F7832B80834BC080E498E02C
:101CD00088839983E0E4F6E0308181E090E023E0BE
:101CE000240F02C0880F991F2A95E2F7832B808367
:101CF00038C080E099E088839983E0E6F6E030819F
:101D000081E090E02FEF240F02C0880F991F2A95E1
:101D1000E2F7832B808325C080E499E08883998350
:101D2000E0E6F6E0308181E090E023E0240F02C09D
:101D3000880F991F2A95E2F7832B808312C080E0D9
:101D40009AE088839983E0E8F6E0308181E090E0D2
:101D50002FEF240F02C0880F991F2A95E2F7832BDB
:101D600080834A83423061F018F4413031F010C072
:101D7000433049F0443051F00BC080E18B8308C000
:101D800080E28B8305C080E48B8302C080E88B8374
:101D9000888199810E94070DE881F9818181887F7E
:101DA000836081831D821E821C82E881F98180818B
:101DB000807F8083B801CE010E94D30DDF91CF9147
:101DC0001F910F910895CF93DF93EC012D813E81F8
:101DD0002F5F3F4FA62FB0E00E94F01024E630E0C6
:101DE00040E050E00E94CE108A81E881F981E6FD52
:101DF00017C0823061F018F4813031F01BC083309D
:101E000049F0843051F016C020AF31AF13C022AF7B
:101E100033AF10C024AF35AF0DC026AF37AF0AC007
:101E2000813019F0823021F005C020AF31AF02C0FF
:101E300022AF33AF8D819E81E881F98186A397A37C
:101E40008B81E881F981E6FD04C09181892B818332
:101E500004C091818073892B8183E881F98180811D
:101E6000807F9C81892B8083DF91CF91089550588A
:101E7000BB27AA270E944F0F0C9427100E9419100D
:101E800038F00E94201020F039F49F3F19F426F416
:101E90000C9416100EF4E095E7FB0C941010E92F4B
:101EA0000E94381058F3BA17620773078407950722
:101EB00020F079F4A6F50C945A100EF4E0950B2E50
:101EC000BA2FA02D0B01B90190010C01CA01A0018C
:101ED0001124FF27591B99F0593F50F4503E68F1E7
:101EE0001A16F040A22F232F342F4427585FF3CF28
:101EF000469537952795A795F0405395C9F77EF4F9
:101F00001F16BA0B620B730B840BBAF09150A1F041
:101F1000FF0FBB1F661F771F881FC2F70EC0BA0FC7
:101F2000621F731F841F48F4879577956795B7954F
:101F3000F7959E3F08F0B0CF9395880F08F099274A
:101F4000EE0F9795879508950E94401088F09F574F
:101F500098F0B92F9927B751B0F0E1F0660F771FCD
:101F6000881F991F1AF0BA95C9F714C0B13091F0C3
:101F70000E945A10B1E008950C945A10672F782FE0
:101F80008827B85F39F0B93FCCF386957795679588
:101F9000B395D9F73EF490958095709561957F4FF4
:101FA0008F4F9F4F0895E89409C097FB3EF490959A
:101FB0008095709561957F4F8F4F9F4F9923A9F022
:101FC000F92F96E9BB279395F695879577956795B1
:101FD000B795F111F8CFFAF4BB0F11F460FF1BC0F5
:101FE0006F5F7F4F8F4F9F4F16C0882311F096E988
:101FF00011C0772321F09EE8872F762F05C0662336
:1020000071F096E8862F70E060E02AF09A95660FEE
:10201000771F881FDAF7880F9695879597F90895A7
:1020200097F99F6780E870E060E008959FEF80EC8B
:10203000089500240A94161617061806090608952E
:1020400000240A9412161306140605060895092E94
:102050000394000C11F4882352F0BB0F40F4BF2B03
:1020600011F460FF04C06F5F7F4F8F4F9F4F089543
:1020700057FD9058440F551F59F05F3F71F0479539
:10208000880F97FB991F61F09F3F79F0879508951E
:10209000121613061406551FF2CF4695F1DF08C03D
:1020A000161617061806991FF1CF8695710561055A
:1020B00008940895E894BB2766277727CB0197F902
:1020C00008950E9474100C9427100E94191038F083
:1020D0000E94201020F0952311F00C9410100C9405
:1020E000161011240C945B100E94381070F3959F09
:1020F000C1F3950F50E0551F629FF001729FBB27FF
:10210000F00DB11D639FAA27F00DB11DAA1F649F9A
:102110006627B00DA11D661F829F2227B00DA11D4D
:10212000621F739FB00DA11D621F839FA00D611DD3
:10213000221F749F3327A00D611D231F849F600DF4
:10214000211D822F762F6A2F11249F5750409AF01D
:10215000F1F088234AF0EE0FFF1FBB1F661F771FA9
:10216000881F91505040A9F79E3F510580F00C9474
:1021700010100C945B105F3FE4F3983ED4F3869507
:1021800077956795B795F795E7959F5FC1F7FE2B14
:10219000880F911D9695879597F90895A1E21A2EBB
:1021A000AA1BBB1BFD010DC0AA1FBB1FEE1FFF1FFB
:1021B000A217B307E407F50720F0A21BB30BE40B4B
:1021C000F50B661F771F881F991F1A9469F7609592
:1021D0007095809590959B01AC01BD01CF0108954C
:1021E000A29FB001B39FC001A39F700D811D112458
:1021F000911DB29F700D811D1124911D08950E94A3
:10220000F010B7FF0895821B930B0895BB274A3047
:1022100031F4992322F4BDE2909581959F4F0C945F
:102220001211BB27FB015527AA27880F991FAA1F48
:10223000A41710F0A41B83955051B9F7A05DAA33E1
:1022400008F0A95DA193009779F7B111B1931192AC
:10225000CB010C942B11DC01FC01672F71917723CA
:10226000E1F7329704C07C916D9370836291AE1751
:0A227000BF07C8F30895F894FFCFEC
:10227A0000004000140054005761746572205465D0
:10228A006D703A0000000000C00250757368204269
:10229A007574746F6E20546F005374617274000009
:00000001FF
